:020000020000FC
:10000000889400F1F894F7F0C894E4F0B894D3F031
:100010009894C1F0D894B5F0A894A2F0E89496F022
:10002000489484F4189471F4789467F4089450F424
:10003000289442F4689436F4589425F4389413F4D0
:100040000C94250000E80C94A3050FEF0F3F59F422
:1000500000E0003041F405E5053529F40AEA0A3AE2
:1000600011F40C94360001E80C94A3050FEF002E58
:10007000102E202E302E402E502E602E702E802ED0
:10008000902EA02EB02EC02ED02EE02EF02E102FAF
:10009000202F302F402F502F602F702F802F902F28
:1000A000A02FB02FC02FD02FE02FF02F0015F1F58B
:1000B0000115E1F50215D1F50315C1F50415B1F5EA
:1000C0000515A1F5061591F5071581F5081571F5CA
:1000D000091561F50A1551F50B1541F50C1531F5AA
:1000E0000D1521F50E1511F50F1501F50117F1F498
:1000F0000217E1F40317D1F40417C1F40517B1F4A2
:100100000617A1F4071791F4081781F4091771F481
:100110000A1761F40B1751F40C1741F40D1731F461
:100120000E1721F40F1711F40C94990002E80C94A7
:10013000A30500E0002E102E202E302E402E502E33
:10014000602E702E802E902EA02EB02EC02ED02E7F
:10015000E02EF02E102F202F302F402F502F602F09
:10016000702F802F902FA02FB02FC02FD02FE02FD7
:10017000F02F0015F1F50115E1F50215D1F5031584
:10018000C1F50415B1F50515A1F5061591F507158D
:1001900081F5081571F5091561F50A1551F50B156D
:1001A00041F50C1531F50D1521F50E1511F50F154D
:1001B00001F50117F1F40217E1F40317D1F4041764
:1001C000C1F40517B1F40617A1F4071791F4081745
:1001D00081F4091771F40A1761F40B1751F40C1725
:1001E00041F40D1731F40E1721F40F1711F40C948C
:1001F000FC0003E80C94A305689447F953F961F9EE
:1002000076F980F995F9A4F9B2F9403881F45830BB
:1002100071F4623061F4703451F4813041F4903201
:1002200031F4A03121F4B43011F40C941A0104E833
:100230000C94A3054FED842E44E0942E4FE7A42E9A
:1002400041E0B42E4DEFC42E40E4D42E47EFE42E0F
:1002500040E1F42E85FA86F092FA76F4A7FA66F079
:10026000B0FA56F4C1FA46F0D6FA36F4E3FA26F0BC
:10027000F4FA16F40C943F0105E80C94A3050FEF73
:100280001FEF20E030E740E05EE76EE770E885E4CE
:1002900090E8A0EFBFEFC5E5DAEAE0E7FFE3011F72
:1002A00068F562F55CF555F549F143F10E3F31F51E
:1002B000021F22F51CF510F109F103F1FDF00E3FCC
:1002C000E9F4211FDAF4D4F4C8F0C1F0BBF0B5F0C2
:1002D0002F3FA1F4951F92F48CF480F079F073F025
:1002E0006DF09E3F59F4601D48F041F03AF033F054
:1002F0002CF025F06E3711F40C94810106E80C9473
:10030000A305950F20F519F112F10BF104F1FDF49D
:100310009C37E9F4010FD8F4D1F0CAF4C3F0BCF46F
:10032000B5F40D3FA1F4240F90F089F082F47BF036
:1003300074F46DF02F3F59F4700D48F041F03AF429
:1003400033F02CF425F0703811F40C94AA0107E86E
:100350000C94A3050096B0F0A9F0A2F09BF094F0E5
:100360008DF0853479F49C3769F4509658F451F443
:100370004AF043F03CF035F0A03021F4B03011F4F5
:100380000C94C50108E80C94A3051C23C8F0C1F027
:10039000BAF0B3F0ACF0A5F0153591F41D2380F060
:1003A00079F472F06BF064F05DF051F4D02040F01D
:1003B00039F432F02BF024F01DF011F40C94E30129
:1003C00009E80C94A305CF7FD0F1C9F1C2F1BBF1CC
:1003D000B4F1ADF1C53599F5C07088F181F57AF1C8
:1003E00073F16CF165F1C03051F5C5E50FEF0F7F8A
:1003F00030F129F122F51BF114F50DF10F3FF9F45D
:100400000070E8F0E1F4DAF0D3F0CCF0C5F00030A1
:10041000B1F40FEFDF7F98F091F08AF483F07CF471
:1004200075F0DA3A61F4D07050F049F442F03BF0E4
:1004300034F02DF0D03019F4DAEA0C9422020AE8F4
:100440000C94A3050595E0F4D9F0D2F4CBF0C4F4F4
:10045000BDF00F3FA9F4B59598F091F48AF083F0C0
:100460007CF075F0B03061F4E59550F049F042F061
:100470003BF034F02DF0E83319F485940C944302EA
:100480000BE80C94A305009520F519F512F10BF17A
:1004900004F1FDF00030E9F40095D8F4D1F0CAF48D
:1004A000C3F0BCF4B5F00F3FA1F4C09590F489F00F
:1004B00082F47BF074F46DF0CA3A59F4C09548F4B4
:1004C00041F03AF033F02CF025F0C53511F40C94DE
:1004D0006C020CE80C94A3051017C0F4B9F0B2F04C
:1004E000ABF0A4F09DF45A1788F081F07AF073F025
:1004F0006CF065F000E4302E0FEFF31538F431F0B6
:100500002AF423F01CF415F00C9489020DE80C94E5
:10051000A3051007E0F4D9F0D2F0CBF0C4F0BDF49D
:100520005107A8F0A1F09AF093F08CF085F0150730
:1005300070F469F062F45BF054F44DF4500738F451
:1005400031F02AF023F01CF015F40C94AA020EE806
:100550000C94A305E0E4FFE71F37A8F4A1F09AF498
:1005600093F08CF485F4E03770F469F062F45BF09A
:1005700054F44DF0F03A38F431F02AF423F41CF03E
:1005800015F00C94C6020FE80C94A305E32F1A95FE
:1005900040F539F132F52BF124F51DF11F3F09F536
:1005A00000E8002E0A94E8F0E1F0DAF0D3F4CCF49D
:1005B000C5F0002D0F37A9F40FEFEA9590F089F000
:1005C00082F07BF074F06DF0EF3659F41A9548F034
:1005D00041F03AF433F02CF425F01E3F11F40C9462
:1005E000F40200E90C94A3051C2F1D2770F169F19A
:1005F00062F55BF154F54DF11F3F39F51C2728F1E9
:1006000021F11AF513F10CF505F11A3AF1F420E095
:100610002127D8F0D1F0CAF4C3F0BCF4B5F02A3ADF
:10062000A1F4202790F089F082F07BF074F06DF057
:10063000253559F4882748F041F43AF033F02CF08E
:1006400025F0803011F40C94280301E90C94A305E3
:10065000839538F131F12AF123F11CF115F1813044
:1006600001F56EEF6395E8F0E1F0DAF4D3F0CCF445
:10067000C5F06F3FB1F46395A0F099F492F08BF060
:1006800084F07DF0603069F4039458F051F04AF43E
:1006900043F43CF035F0002D00380FEF11F40C94CA
:1006A000540302E90C94A305AA95F0E8A69520F559
:1006B00019F112F10BF504F5FDF0AF37E9F4E69509
:1006C000D8F4D1F0CAF0C3F4BCF4B5F0E733A1F428
:1006D000469590F089F482F07BF074F06DF0403034
:1006E00059F4F69548F041F03AF033F02CF025F04B
:1006F000F03411F40C947F0303E90C94A3050195E5
:1007000030F529F122F11BF114F10DF50130F9F466
:100710006195E8F0E1F4DAF0D3F0CCF0C5F06030A8
:10072000B1F40194A0F499F092F48BF484F07DF08C
:10073000002D00380FEF59F4519548F441F03AF488
:1007400033F02CF425F4523811F40C94AA0304E984
:100750000C94A305212BD8F0D1F0CAF4C3F0BCF45B
:10076000B5F02F3FA1F42C2B90F089F082F47BF0B0
:1007700074F46DF02F3F59F4612B48F041F03AF4D6
:1007800033F02CF425F06A3A11F40C94CA0305E90D
:100790000C94A3051F6F90F089F082F47BF074F441
:1007A0006DF01F3F59F49D6748F041F03AF033F087
:1007B0002CF025F09D3711F40C94E10306E90C941C
:1007C000A3050894179590F589F182F57BF174F5EE
:1007D0006DF11F3F59F50894379540F139F132F525
:1007E0002BF524F11DF1383B09F501E00795F0F4F4
:1007F000E9F4E2F0DBF4D4F4CDF00030B9F408947D
:100800000794A0F099F092F48BF484F07DF0002D21
:10081000003C00E059F4079548F041F43AF033F019
:100820002CF025F0003011F40C94190407E90C9415
:10083000A305F0E5010BF8F4F1F0EAF0E3F0DCF0E9
:10084000D5F40130C1F40894F047A8F4A1F09AF46B
:1008500093F08CF485F4FF3D71F40894A40A58F0E9
:1008600051F04AF043F03CF035F00A2D0E3701E02C
:1008700011F40C943E0408E90C94A3059FE781E76A
:10088000AF47E0F0D9F4D2F0CBF0C4F0BDF0A03027
:10089000A9F4910B98F491F08AF483F47CF075F04C
:1008A000903861F40894804A48F441F03AF433F403
:1008B0002CF025F0803D11F40C94610409E90C94AE
:1008C000A3058DE090E04097B0F4A9F0A2F49BF06E
:1008D00094F48DF08D3F79F49F3F69F4009758F0C0
:1008E00051F04AF443F03CF435F08D3F21F49F3F42
:1008F00011F40C947E040AE90C94A305EFE7FFE7DA
:10090000011BD8F4D1F0CAF0C3F0BCF0B5F402304A
:10091000A1F4E11B90F489F082F47BF474F06DF0A3
:10092000E03859F4F41B48F041F03AF033F02CF081
:1009300025F0FF3711F40C94A0040BE90C94A305E7
:10094000E0E5F1E74F57D8F4D1F0CAF4C3F0BCF4B6
:10095000B5F44138A1F4E05790F489F082F47BF0CB
:1009600074F46DF0E03E59F4F05A48F441F03AF472
:1009700033F42CF025F0F13D11F40C94C2040CE991
:100980000C94A3055295E8F0E1F4DAF0D3F0CCF042
:10099000C5F05832B1F4A294A0F099F492F08BF023
:1009A00084F07DF00A2D073E02E059F4B29548F03C
:1009B00041F43AF033F02CF025F0B03011F40C94FF
:1009C000E4040DE90C94A305AF93BF93CF93DF9399
:1009D000EF93FF930F901F900C94F1040EE90C9489
:1009E000A305BFEFAFEFDFEFC0ECF0E0E0E80C9461
:1009F000FC040FE90C94A305009255551092AAAA85
:100A00000C94050500EA0C94A3052C923E924D929D
:100A10005D926C92799288829A92A882BCAECA82C8
:100A2000DE8AE982F192008312932083368F41831C
:100A300057AF60A30C941F0501EA0C94A305DFEFE8
:100A4000C0EE7A9389939FAFB0E0A0E0DFEFCFEFE5
:100A5000FFEFE0EC0090AAAA109055557C909E9074
:100A60004D915C91699078816A91F8A04190D08015
:100A7000229014AD0C943F0502EA0C94A3050C944B
:100A800044056AE57AE502C085EAFBCFEBE4F5E0D0
:100A90000994B0E0C0E00E9498054AD0E8E9F5E08A
:100AA0000995CB1710F00C945105DCF3D1F311F438
:100AB0000C94510559E6550FA5F7BB2B12F00C9479
:100AC0005105CC2B72F312F40C945105BB2B4AF751
:100AD000CB1B13F00C945105CA951BF7B1300CF7E2
:100AE000F894FFF20E949C05E7F6E1FBD6F6E3FBE3
:100AF000C6F2EE0F10F40C945105EE0F90F615F0BF
:100B00000C9451056713FECF67130C94820568138C
:100B100060E866FD6FEF63FD0C94820567FD65EA92
:100B200060FF60E065FF0C94820561FF0C94A005F6
:100B3000BFEFCFE7D0E008959FEFAFE7E6E6189567
:0A0B400000E00C94A0050C94A3053E
:00000001FF
