:020000020000FC
:100000008894F894C894B8949894D894A894E89450
:100010004894189478940894289468945894389440
:1000200000E0002E102E202E302E402E502E602E5E
:10003000702E07F813F821F836F840F855F864F8F0
:1000400072F84FED842E44E0942E4FE7A42E41E049
:10005000B42E4DEFC42E40E4D42E47EFE42E40E101
:10006000F42E85FA92FAA7FAB0FAC1FAD6FAE3FAB0
:10007000F4FA0FEF1FEF20E030E740E05EE76EE7B5
:1000800070E885E490E8A0EFBFEFC5E5DAEAE0E7C5
:10009000FFE3011F021F211F951F601D950F010F18
:1000A000240F700D009650961C231D23D020CF7F67
:1000B0000F7FDF7F0595B595E595859400950095B3
:1000C000C095C09510175A17F3151007510715075B
:1000D0005007E0E4FFE71F37E037F03AE32F1A95C7
:1000E0000A94EA951A951C2F1D271C2721272027E3
:1000F00088278395639563950394AA95F0E8A69560
:10010000E6954695F6950195619501945195212BBB
:100110002C2B612B1F6F9D671795379507950794BB
:100120000795F0E5010BF047A40A9FE781E7AF4789
:10013000910B804A8DE090E040970097EFE7FFE752
:10014000011BE11BF41BE0E5F1E74F57E057F05AC4
:100150005295A294B295AF93BF93CF93DF93EF9351
:10016000FF930F901F90BFEFAFEFDFEFC0ECF0E019
:10017000E0E8009255551092AAAA2C923E924D9218
:100180005D926C92799288829A92A882BCAECA8261
:10019000DE8AE982F192008312932083368F4183B5
:1001A00057AF60A3DFEFC0EE7A9389939FAFB0E0C3
:1001B000A0E0DFEFCFEFFFEFE0EC0090AAAA1090F5
:1001C00055557C909E904D915C91699078816A9193
:1001D000F8A04190D080229014AD0C94F2006AE512
:1001E0007AE502C085EAFBCFE9EFF0E00994B0E0E0
:1001F000C0E00E9446014AD0E6E4F1E00995CB1741
:1002000010F00C94FF00DCF3D1F311F40C94FF0018
:1002100059E6550FA5F7BB2B12F00C94FF00CC2B21
:1002200072F312F40C94FF00BB2B4AF7CB1B13F0B4
:100230000C94FF00CA951BF7B1300CF7F894FFF24D
:100240000E944A01E7F6E1FBD6F6E3FBC6F2EE0FA9
:1002500010F40C94FF00EE0F90F615F00C94FF00D4
:100260006713FECF67130C943001681360E866FDD6
:100270006FEF63FD0C94300167FD65EA60FF60E09D
:1002800065FF0C94300161FF0C940000BFEFCFE7D5
:0C029000D0E008959FEFAFE7E6E6189578
:00000001FF
